{"abi":[{"type":"constructor","inputs":[{"name":"poolToken","type":"address","internalType":"address"},{"name":"wethToken","type":"address","internalType":"address"},{"name":"liquidityTokenName","type":"string","internalType":"string"},{"name":"liquidityTokenSymbol","type":"string","internalType":"string"}],"stateMutability":"nonpayable"},{"type":"function","name":"allowance","inputs":[{"name":"owner","type":"address","internalType":"address"},{"name":"spender","type":"address","internalType":"address"}],"outputs":[{"name":"","type":"uint256","internalType":"uint256"}],"stateMutability":"view"},{"type":"function","name":"approve","inputs":[{"name":"spender","type":"address","internalType":"address"},{"name":"value","type":"uint256","internalType":"uint256"}],"outputs":[{"name":"","type":"bool","internalType":"bool"}],"stateMutability":"nonpayable"},{"type":"function","name":"balanceOf","inputs":[{"name":"account","type":"address","internalType":"address"}],"outputs":[{"name":"","type":"uint256","internalType":"uint256"}],"stateMutability":"view"},{"type":"function","name":"decimals","inputs":[],"outputs":[{"name":"","type":"uint8","internalType":"uint8"}],"stateMutability":"view"},{"type":"function","name":"deposit","inputs":[{"name":"wethToDeposit","type":"uint256","internalType":"uint256"},{"name":"minimumLiquidityTokensToMint","type":"uint256","internalType":"uint256"},{"name":"maximumPoolTokensToDeposit","type":"uint256","internalType":"uint256"},{"name":"deadline","type":"uint64","internalType":"uint64"}],"outputs":[{"name":"liquidityTokensToMint","type":"uint256","internalType":"uint256"}],"stateMutability":"nonpayable"},{"type":"function","name":"getInputAmountBasedOnOutput","inputs":[{"name":"outputAmount","type":"uint256","internalType":"uint256"},{"name":"inputReserves","type":"uint256","internalType":"uint256"},{"name":"outputReserves","type":"uint256","internalType":"uint256"}],"outputs":[{"name":"inputAmount","type":"uint256","internalType":"uint256"}],"stateMutability":"pure"},{"type":"function","name":"getMinimumWethDepositAmount","inputs":[],"outputs":[{"name":"","type":"uint256","internalType":"uint256"}],"stateMutability":"pure"},{"type":"function","name":"getOutputAmountBasedOnInput","inputs":[{"name":"inputAmount","type":"uint256","internalType":"uint256"},{"name":"inputReserves","type":"uint256","internalType":"uint256"},{"name":"outputReserves","type":"uint256","internalType":"uint256"}],"outputs":[{"name":"outputAmount","type":"uint256","internalType":"uint256"}],"stateMutability":"pure"},{"type":"function","name":"getPoolToken","inputs":[],"outputs":[{"name":"","type":"address","internalType":"address"}],"stateMutability":"view"},{"type":"function","name":"getPoolTokensToDepositBasedOnWeth","inputs":[{"name":"wethToDeposit","type":"uint256","internalType":"uint256"}],"outputs":[{"name":"","type":"uint256","internalType":"uint256"}],"stateMutability":"view"},{"type":"function","name":"getPriceOfOnePoolTokenInWeth","inputs":[],"outputs":[{"name":"","type":"uint256","internalType":"uint256"}],"stateMutability":"view"},{"type":"function","name":"getPriceOfOneWethInPoolTokens","inputs":[],"outputs":[{"name":"","type":"uint256","internalType":"uint256"}],"stateMutability":"view"},{"type":"function","name":"getWeth","inputs":[],"outputs":[{"name":"","type":"address","internalType":"address"}],"stateMutability":"view"},{"type":"function","name":"name","inputs":[],"outputs":[{"name":"","type":"string","internalType":"string"}],"stateMutability":"view"},{"type":"function","name":"sellPoolTokens","inputs":[{"name":"poolTokenAmount","type":"uint256","internalType":"uint256"}],"outputs":[{"name":"wethAmount","type":"uint256","internalType":"uint256"}],"stateMutability":"nonpayable"},{"type":"function","name":"swapExactInput","inputs":[{"name":"inputToken","type":"address","internalType":"contract IERC20"},{"name":"inputAmount","type":"uint256","internalType":"uint256"},{"name":"outputToken","type":"address","internalType":"contract IERC20"},{"name":"minOutputAmount","type":"uint256","internalType":"uint256"},{"name":"deadline","type":"uint64","internalType":"uint64"}],"outputs":[{"name":"output","type":"uint256","internalType":"uint256"}],"stateMutability":"nonpayable"},{"type":"function","name":"swapExactOutput","inputs":[{"name":"inputToken","type":"address","internalType":"contract IERC20"},{"name":"outputToken","type":"address","internalType":"contract IERC20"},{"name":"outputAmount","type":"uint256","internalType":"uint256"},{"name":"deadline","type":"uint64","internalType":"uint64"}],"outputs":[{"name":"inputAmount","type":"uint256","internalType":"uint256"}],"stateMutability":"nonpayable"},{"type":"function","name":"symbol","inputs":[],"outputs":[{"name":"","type":"string","internalType":"string"}],"stateMutability":"view"},{"type":"function","name":"totalLiquidityTokenSupply","inputs":[],"outputs":[{"name":"","type":"uint256","internalType":"uint256"}],"stateMutability":"view"},{"type":"function","name":"totalSupply","inputs":[],"outputs":[{"name":"","type":"uint256","internalType":"uint256"}],"stateMutability":"view"},{"type":"function","name":"transfer","inputs":[{"name":"to","type":"address","internalType":"address"},{"name":"value","type":"uint256","internalType":"uint256"}],"outputs":[{"name":"","type":"bool","internalType":"bool"}],"stateMutability":"nonpayable"},{"type":"function","name":"transferFrom","inputs":[{"name":"from","type":"address","internalType":"address"},{"name":"to","type":"address","internalType":"address"},{"name":"value","type":"uint256","internalType":"uint256"}],"outputs":[{"name":"","type":"bool","internalType":"bool"}],"stateMutability":"nonpayable"},{"type":"function","name":"withdraw","inputs":[{"name":"liquidityTokensToBurn","type":"uint256","internalType":"uint256"},{"name":"minWethToWithdraw","type":"uint256","internalType":"uint256"},{"name":"minPoolTokensToWithdraw","type":"uint256","internalType":"uint256"},{"name":"deadline","type":"uint64","internalType":"uint64"}],"outputs":[],"stateMutability":"nonpayable"},{"type":"event","name":"Approval","inputs":[{"name":"owner","type":"address","indexed":true,"internalType":"address"},{"name":"spender","type":"address","indexed":true,"internalType":"address"},{"name":"value","type":"uint256","indexed":false,"internalType":"uint256"}],"anonymous":false},{"type":"event","name":"LiquidityAdded","inputs":[{"name":"liquidityProvider","type":"address","indexed":true,"internalType":"address"},{"name":"wethDeposited","type":"uint256","indexed":false,"internalType":"uint256"},{"name":"poolTokensDeposited","type":"uint256","indexed":false,"internalType":"uint256"}],"anonymous":false},{"type":"event","name":"LiquidityRemoved","inputs":[{"name":"liquidityProvider","type":"address","indexed":true,"internalType":"address"},{"name":"wethWithdrawn","type":"uint256","indexed":false,"internalType":"uint256"},{"name":"poolTokensWithdrawn","type":"uint256","indexed":false,"internalType":"uint256"}],"anonymous":false},{"type":"event","name":"Swap","inputs":[{"name":"swapper","type":"address","indexed":true,"internalType":"address"},{"name":"tokenIn","type":"address","indexed":false,"internalType":"contract IERC20"},{"name":"amountTokenIn","type":"uint256","indexed":false,"internalType":"uint256"},{"name":"tokenOut","type":"address","indexed":false,"internalType":"contract IERC20"},{"name":"amountTokenOut","type":"uint256","indexed":false,"internalType":"uint256"}],"anonymous":false},{"type":"event","name":"Transfer","inputs":[{"name":"from","type":"address","indexed":true,"internalType":"address"},{"name":"to","type":"address","indexed":true,"internalType":"address"},{"name":"value","type":"uint256","indexed":false,"internalType":"uint256"}],"anonymous":false},{"type":"error","name":"ERC20InsufficientAllowance","inputs":[{"name":"spender","type":"address","internalType":"address"},{"name":"allowance","type":"uint256","internalType":"uint256"},{"name":"needed","type":"uint256","internalType":"uint256"}]},{"type":"error","name":"ERC20InsufficientBalance","inputs":[{"name":"sender","type":"address","internalType":"address"},{"name":"balance","type":"uint256","internalType":"uint256"},{"name":"needed","type":"uint256","internalType":"uint256"}]},{"type":"error","name":"ERC20InvalidApprover","inputs":[{"name":"approver","type":"address","internalType":"address"}]},{"type":"error","name":"ERC20InvalidReceiver","inputs":[{"name":"receiver","type":"address","internalType":"address"}]},{"type":"error","name":"ERC20InvalidSender","inputs":[{"name":"sender","type":"address","internalType":"address"}]},{"type":"error","name":"ERC20InvalidSpender","inputs":[{"name":"spender","type":"address","internalType":"address"}]},{"type":"error","name":"SafeERC20FailedOperation","inputs":[{"name":"token","type":"address","internalType":"address"}]},{"type":"error","name":"TSwapPool__DeadlineHasPassed","inputs":[{"name":"deadline","type":"uint64","internalType":"uint64"}]},{"type":"error","name":"TSwapPool__InvalidToken","inputs":[]},{"type":"error","name":"TSwapPool__MaxPoolTokenDepositTooHigh","inputs":[{"name":"maximumPoolTokensToDeposit","type":"uint256","internalType":"uint256"},{"name":"poolTokensToDeposit","type":"uint256","internalType":"uint256"}]},{"type":"error","name":"TSwapPool__MinLiquidityTokensToMintTooLow","inputs":[{"name":"minimumLiquidityTokensToMint","type":"uint256","internalType":"uint256"},{"name":"liquidityTokensToMint","type":"uint256","internalType":"uint256"}]},{"type":"error","name":"TSwapPool__MustBeMoreThanZero","inputs":[]},{"type":"error","name":"TSwapPool__OutputTooLow","inputs":[{"name":"actual","type":"uint256","internalType":"uint256"},{"name":"min","type":"uint256","internalType":"uint256"}]},{"type":"error","name":"TSwapPool__WethDepositAmountTooLow","inputs":[{"name":"minimumWethDeposit","type":"uint256","internalType":"uint256"},{"name":"wethToDeposit","type":"uint256","internalType":"uint256"}]}],"bytecode":{"object":"0x60c060405260006005553480156200001657600080fd5b5060405162001f5d38038062001f5d833981016040819052620000399162000157565b8181600362000049838262000276565b50600462000058828262000276565b5050506001600160a01b0392831660805250501660a05262000342565b80516001600160a01b03811681146200008d57600080fd5b919050565b634e487b7160e01b600052604160045260246000fd5b600082601f830112620000ba57600080fd5b81516001600160401b0380821115620000d757620000d762000092565b604051601f8301601f19908116603f0116810190828211818310171562000102576200010262000092565b816040528381526020925086838588010111156200011f57600080fd5b600091505b8382101562000143578582018301518183018401529082019062000124565b600093810190920192909252949350505050565b600080600080608085870312156200016e57600080fd5b620001798562000075565b9350620001896020860162000075565b60408601519093506001600160401b0380821115620001a757600080fd5b620001b588838901620000a8565b93506060870151915080821115620001cc57600080fd5b50620001db87828801620000a8565b91505092959194509250565b600181811c90821680620001fc57607f821691505b6020821081036200021d57634e487b7160e01b600052602260045260246000fd5b50919050565b601f8211156200027157600081815260208120601f850160051c810160208610156200024c5750805b601f850160051c820191505b818110156200026d5782815560010162000258565b5050505b505050565b81516001600160401b0381111562000292576200029262000092565b620002aa81620002a38454620001e7565b8462000223565b602080601f831160018114620002e25760008415620002c95750858301515b600019600386901b1c1916600185901b1785556200026d565b600085815260208120601f198616915b828110156200031357888601518255948401946001909101908401620002f2565b5085821015620003325787850151600019600388901b60f8161c191681555b5050505050600190811b01905550565b60805160a051611b77620003e6600039600081816102dd015281816104370152818161072c01528181610bc101528181610d2601528181610e0701528181610ec601528181610f9f015281816113c301526116c4015260008181610195015281816104580152818161069601528181610b1901528181610cf201528181610d8701528181610f460152818161102d0152818161138e01526116870152611b776000f3fe608060405234801561001057600080fd5b506004361061014d5760003560e01c80636b3c4779116100c3578063a9059cbb1161007c578063a9059cbb146102c0578063b7e7fdcc146102d3578063dc0374d1146102db578063dd62ed3e14610301578063e29e03781461033a578063ff792c961461034d57600080fd5b80636b3c47791461025757806370a082311461026a57806385b29438146102935780638933da3a1461029b5780638fd78242146102b057806395d89b41146102b857600080fd5b8063313ce56711610115578063313ce567146101f257806335e6bf53146102015780633dd5e20d146102145780633f163cdf146102275780634b785efe146102315780634e6d9df81461024457600080fd5b806306fdde0314610152578063095ea7b314610170578063107c279f1461019357806318160ddd146101cd57806323b872dd146101df575b600080fd5b61015a610360565b60405161016791906117ee565b60405180910390f35b61018361017e366004611854565b6103f2565b6040519015158152602001610167565b7f00000000000000000000000000000000000000000000000000000000000000005b6040516001600160a01b039091168152602001610167565b6002545b604051908152602001610167565b6101836101ed366004611880565b61040c565b60405160128152602001610167565b6101d161020f3660046118c1565b610430565b6101d16102223660046118f7565b61047e565b633b9aca006101d1565b6101d161023f366004611952565b610618565b6101d1610252366004611991565b610846565b6101d16102653660046119d7565b6109ac565b6101d1610278366004611a03565b6001600160a01b031660009081526020819052604090205490565b6101d1610a42565b6102ae6102a9366004611952565b610a52565b005b6101d1610d59565b61015a610e7b565b6101836102ce366004611854565b610e8a565b6101d1610e98565b7f00000000000000000000000000000000000000000000000000000000000000006101b5565b6101d161030f366004611a27565b6001600160a01b03918216600090815260016020908152604080832093909416825291909152205490565b6101d16103483660046118c1565b610f7d565b6101d161035b3660046119d7565b6110b7565b60606003805461036f90611a60565b80601f016020809104026020016040519081016040528092919081815260200182805461039b90611a60565b80156103e85780601f106103bd576101008083540402835291602001916103e8565b820191906000526020600020905b8154815290600101906020018083116103cb57829003601f168201915b5050505050905090565b60003361040081858561113d565b60019150505b92915050565b60003361041a85828561114f565b6104258585856111ce565b506001949350505050565b60006104067f00000000000000000000000000000000000000000000000000000000000000007f00000000000000000000000000000000000000000000000000000000000000008442610846565b600084806000036104a257604051632c9669e960e11b815260040160405180910390fd5b824267ffffffffffffffff168167ffffffffffffffff1610156104e95760405163f20357c360e01b815267ffffffffffffffff821660048201526024015b60405180910390fd5b6040516370a0823160e01b81523060048201526000906001600160a01b038a16906370a0823190602401602060405180830381865afa158015610530573d6000803e3d6000fd5b505050506040513d601f19601f820116820180604052508101906105549190611a9a565b6040516370a0823160e01b81523060048201529091506000906001600160a01b038916906370a0823190602401602060405180830381865afa15801561059e573d6000803e3d6000fd5b505050506040513d601f19601f820116820180604052508101906105c29190611a9a565b905060006105d18a84846109ac565b9050878110156105fe5760405163feb54daf60e01b815260048101829052602481018990526044016104e0565b61060a8b8b8b8461122d565b505050505095945050505050565b6000848060000361063c57604051632c9669e960e11b815260040160405180910390fd5b633b9aca0086101561066e57604051630769ac0560e21b8152633b9aca006004820152602481018790526044016104e0565b6000610678610a42565b111561082e576040516370a0823160e01b81523060048201526000907f00000000000000000000000000000000000000000000000000000000000000006001600160a01b0316906370a0823190602401602060405180830381865afa1580156106e5573d6000803e3d6000fd5b505050506040513d601f19601f820116820180604052508101906107099190611a9a565b6040516370a0823160e01b81523060048201529091506000906001600160a01b037f000000000000000000000000000000000000000000000000000000000000000016906370a0823190602401602060405180830381865afa158015610773573d6000803e3d6000fd5b505050506040513d601f19601f820116820180604052508101906107979190611a9a565b905060006107a489610f7d565b9050808710156107d1576040516321d4d9c560e21b815260048101889052602481018290526044016104e0565b826107da610a42565b6107e4908b611ac9565b6107ee9190611ae0565b94508785101561081b576040516339d8595160e11b815260048101899052602481018690526044016104e0565b61082689828761133c565b50505061083d565b61083986858861133c565b8591505b50949350505050565b6000828060000361086a57604051632c9669e960e11b815260040160405180910390fd5b824267ffffffffffffffff168167ffffffffffffffff1610156108ac5760405163f20357c360e01b815267ffffffffffffffff821660048201526024016104e0565b6040516370a0823160e01b81523060048201526000906001600160a01b038916906370a0823190602401602060405180830381865afa1580156108f3573d6000803e3d6000fd5b505050506040513d601f19601f820116820180604052508101906109179190611a9a565b6040516370a0823160e01b81523060048201529091506000906001600160a01b038916906370a0823190602401602060405180830381865afa158015610961573d6000803e3d6000fd5b505050506040513d601f19601f820116820180604052508101906109859190611a9a565b90506109928783836110b7565b94506109a089868a8a61122d565b50505050949350505050565b600083806000036109d057604051632c9669e960e11b815260040160405180910390fd5b82806000036109f257604051632c9669e960e11b815260040160405180910390fd5b6000610a00876103e5611ac9565b90506000610a0e8683611ac9565b9050600082610a1f896103e8611ac9565b610a299190611b02565b9050610a358183611ae0565b9998505050505050505050565b6000610a4d60025490565b905090565b804267ffffffffffffffff168167ffffffffffffffff161015610a945760405163f20357c360e01b815267ffffffffffffffff821660048201526024016104e0565b8480600003610ab657604051632c9669e960e11b815260040160405180910390fd5b8480600003610ad857604051632c9669e960e11b815260040160405180910390fd5b8480600003610afa57604051632c9669e960e11b815260040160405180910390fd5b6000610b04610a42565b6040516370a0823160e01b81523060048201527f00000000000000000000000000000000000000000000000000000000000000006001600160a01b0316906370a0823190602401602060405180830381865afa158015610b68573d6000803e3d6000fd5b505050506040513d601f19601f82011682018060405250810190610b8c9190611a9a565b610b96908b611ac9565b610ba09190611ae0565b90506000610bac610a42565b6040516370a0823160e01b81523060048201527f00000000000000000000000000000000000000000000000000000000000000006001600160a01b0316906370a0823190602401602060405180830381865afa158015610c10573d6000803e3d6000fd5b505050506040513d601f19601f82011682018060405250810190610c349190611a9a565b610c3e908c611ac9565b610c489190611ae0565b905088821015610c755760405163feb54daf60e01b815260048101839052602481018a90526044016104e0565b87811015610ca05760405163feb54daf60e01b815260048101829052602481018990526044016104e0565b610caa338b6113eb565b604080518381526020810183905233917f96cd817c6329656790ef8fba7675405193677d39619571282f5e21f3a98cd059910160405180910390a2610d196001600160a01b037f0000000000000000000000000000000000000000000000000000000000000000163384611425565b610d4d6001600160a01b037f0000000000000000000000000000000000000000000000000000000000000000163383611425565b50505050505050505050565b6040516370a0823160e01b8152306004820152600090610a4d90670de0b6b3a7640000906001600160a01b037f000000000000000000000000000000000000000000000000000000000000000016906370a0823190602401602060405180830381865afa158015610dce573d6000803e3d6000fd5b505050506040513d601f19601f82011682018060405250810190610df29190611a9a565b6040516370a0823160e01b81523060048201527f00000000000000000000000000000000000000000000000000000000000000006001600160a01b0316906370a08231906024015b602060405180830381865afa158015610e57573d6000803e3d6000fd5b505050506040513d601f19601f820116820180604052508101906102659190611a9a565b60606004805461036f90611a60565b6000336104008185856111ce565b6040516370a0823160e01b8152306004820152600090610a4d90670de0b6b3a7640000906001600160a01b037f000000000000000000000000000000000000000000000000000000000000000016906370a0823190602401602060405180830381865afa158015610f0d573d6000803e3d6000fd5b505050506040513d601f19601f82011682018060405250810190610f319190611a9a565b6040516370a0823160e01b81523060048201527f00000000000000000000000000000000000000000000000000000000000000006001600160a01b0316906370a0823190602401610e3a565b6040516370a0823160e01b815230600482015260009081906001600160a01b037f000000000000000000000000000000000000000000000000000000000000000016906370a0823190602401602060405180830381865afa158015610fe6573d6000803e3d6000fd5b505050506040513d601f19601f8201168201806040525081019061100a9190611a9a565b6040516370a0823160e01b81523060048201529091506000906001600160a01b037f000000000000000000000000000000000000000000000000000000000000000016906370a0823190602401602060405180830381865afa158015611074573d6000803e3d6000fd5b505050506040513d601f19601f820116820180604052508101906110989190611a9a565b9050806110a58386611ac9565b6110af9190611ae0565b949350505050565b600083806000036110db57604051632c9669e960e11b815260040160405180910390fd5b82806000036110fd57604051632c9669e960e11b815260040160405180910390fd5b6111078685611b15565b611113906103e5611ac9565b61111d8787611ac9565b61112990612710611ac9565b6111339190611ae0565b9695505050505050565b61114a8383836001611484565b505050565b6001600160a01b038381166000908152600160209081526040808320938616835292905220546000198110156111c857818110156111b957604051637dc7a0d960e11b81526001600160a01b038416600482015260248101829052604481018390526064016104e0565b6111c884848484036000611484565b50505050565b6001600160a01b0383166111f857604051634b637e8f60e11b8152600060048201526024016104e0565b6001600160a01b0382166112225760405163ec442f0560e01b8152600060048201526024016104e0565b61114a838383611559565b61123684611683565b80611245575061124582611683565b806112615750816001600160a01b0316846001600160a01b0316145b1561127f57604051637d16cb4960e11b815260040160405180910390fd5b6005805490600061128f83611b28565b9190505550600a600554106112bf5760006005556112bf6001600160a01b03831633670de0b6b3a7640000611425565b604080516001600160a01b0386811682526020820186905284168183015260608101839052905133917f5380cf97d8f645d3c4896da60c053458dca03a3a31cec642ac80e1ddf0d8d02a919081900360800190a26113286001600160a01b03851633308661170e565b6111c86001600160a01b0383163383611425565b6113463382611747565b604080518381526020810185905233917fac1d76749e5447b7b16f5ab61447e1bd502f3bb4807af3b28e620d1700a6ee45910160405180910390a26113b66001600160a01b037f00000000000000000000000000000000000000000000000000000000000000001633308661170e565b61114a6001600160a01b037f00000000000000000000000000000000000000000000000000000000000000001633308561170e565b6001600160a01b03821661141557604051634b637e8f60e11b8152600060048201526024016104e0565b61142182600083611559565b5050565b6040516001600160a01b0383811660248301526044820183905261114a91859182169063a9059cbb906064015b604051602081830303815290604052915060e01b6020820180516001600160e01b03838183161783525050505061177d565b6001600160a01b0384166114ae5760405163e602df0560e01b8152600060048201526024016104e0565b6001600160a01b0383166114d857604051634a1406b160e11b8152600060048201526024016104e0565b6001600160a01b03808516600090815260016020908152604080832093871683529290522082905580156111c857826001600160a01b0316846001600160a01b03167f8c5be1e5ebec7d5bd14f71427d1e84f3dd0314c0f7b2291e5b200ac8c7c3b9258460405161154b91815260200190565b60405180910390a350505050565b6001600160a01b0383166115845780600260008282546115799190611b02565b909155506115f69050565b6001600160a01b038316600090815260208190526040902054818110156115d75760405163391434e360e21b81526001600160a01b038516600482015260248101829052604481018390526064016104e0565b6001600160a01b03841660009081526020819052604090209082900390555b6001600160a01b03821661161257600280548290039055611631565b6001600160a01b03821660009081526020819052604090208054820190555b816001600160a01b0316836001600160a01b03167fddf252ad1be2c89b69c2b068fc378daa952ba7f163c4a11628f55a4df523b3ef8360405161167691815260200190565b60405180910390a3505050565b60007f00000000000000000000000000000000000000000000000000000000000000006001600160a01b0316826001600160a01b0316141580156116f957507f00000000000000000000000000000000000000000000000000000000000000006001600160a01b0316826001600160a01b031614155b1561170657506001919050565b506000919050565b6040516001600160a01b0384811660248301528381166044830152606482018390526111c89186918216906323b872dd90608401611452565b6001600160a01b0382166117715760405163ec442f0560e01b8152600060048201526024016104e0565b61142160008383611559565b600080602060008451602086016000885af1806117a0576040513d6000823e3d81fd5b50506000513d915081156117b85780600114156117c5565b6001600160a01b0384163b155b156111c857604051635274afe760e01b81526001600160a01b03851660048201526024016104e0565b600060208083528351808285015260005b8181101561181b578581018301518582016040015282016117ff565b506000604082860101526040601f19601f8301168501019250505092915050565b6001600160a01b038116811461185157600080fd5b50565b6000806040838503121561186757600080fd5b82356118728161183c565b946020939093013593505050565b60008060006060848603121561189557600080fd5b83356118a08161183c565b925060208401356118b08161183c565b929592945050506040919091013590565b6000602082840312156118d357600080fd5b5035919050565b803567ffffffffffffffff811681146118f257600080fd5b919050565b600080600080600060a0868803121561190f57600080fd5b853561191a8161183c565b94506020860135935060408601356119318161183c565b925060608601359150611946608087016118da565b90509295509295909350565b6000806000806080858703121561196857600080fd5b843593506020850135925060408501359150611986606086016118da565b905092959194509250565b600080600080608085870312156119a757600080fd5b84356119b28161183c565b935060208501356119c28161183c565b925060408501359150611986606086016118da565b6000806000606084860312156119ec57600080fd5b505081359360208301359350604090920135919050565b600060208284031215611a1557600080fd5b8135611a208161183c565b9392505050565b60008060408385031215611a3a57600080fd5b8235611a458161183c565b91506020830135611a558161183c565b809150509250929050565b600181811c90821680611a7457607f821691505b602082108103611a9457634e487b7160e01b600052602260045260246000fd5b50919050565b600060208284031215611aac57600080fd5b5051919050565b634e487b7160e01b600052601160045260246000fd5b808202811582820484141761040657610406611ab3565b600082611afd57634e487b7160e01b600052601260045260246000fd5b500490565b8082018082111561040657610406611ab3565b8181038181111561040657610406611ab3565b600060018201611b3a57611b3a611ab3565b506001019056fea2646970667358221220a833e264a632fe6b4ef517004f38d258b13410b427cb62224f62909210fa91e064736f6c63430008140033","linkReferences":{}},"methodIdentifiers":{"allowance(address,address)":"dd62ed3e","approve(address,uint256)":"095ea7b3","balanceOf(address)":"70a08231","decimals()":"313ce567","deposit(uint256,uint256,uint256,uint64)":"4b785efe","getInputAmountBasedOnOutput(uint256,uint256,uint256)":"ff792c96","getMinimumWethDepositAmount()":"3f163cdf","getOutputAmountBasedOnInput(uint256,uint256,uint256)":"6b3c4779","getPoolToken()":"dc0374d1","getPoolTokensToDepositBasedOnWeth(uint256)":"e29e0378","getPriceOfOnePoolTokenInWeth()":"b7e7fdcc","getPriceOfOneWethInPoolTokens()":"8fd78242","getWeth()":"107c279f","name()":"06fdde03","sellPoolTokens(uint256)":"35e6bf53","swapExactInput(address,uint256,address,uint256,uint64)":"3dd5e20d","swapExactOutput(address,address,uint256,uint64)":"4e6d9df8","symbol()":"95d89b41","totalLiquidityTokenSupply()":"85b29438","totalSupply()":"18160ddd","transfer(address,uint256)":"a9059cbb","transferFrom(address,address,uint256)":"23b872dd","withdraw(uint256,uint256,uint256,uint64)":"8933da3a"},"id":33}